{
  "contractName": "ZombieFeeding",
  "abi": [
    {
      "anonymous": false,
      "inputs": [
        {
          "indexed": false,
          "internalType": "uint256",
          "name": "zombieId",
          "type": "uint256"
        },
        {
          "indexed": false,
          "internalType": "string",
          "name": "name",
          "type": "string"
        },
        {
          "indexed": false,
          "internalType": "uint256",
          "name": "dna",
          "type": "uint256"
        }
      ],
      "name": "NewZombie",
      "type": "event"
    },
    {
      "constant": false,
      "inputs": [
        {
          "internalType": "string",
          "name": "_name",
          "type": "string"
        }
      ],
      "name": "createRandomZombie",
      "outputs": [],
      "payable": false,
      "stateMutability": "nonpayable",
      "type": "function"
    },
    {
      "constant": true,
      "inputs": [
        {
          "internalType": "uint256",
          "name": "",
          "type": "uint256"
        }
      ],
      "name": "zombieToOwner",
      "outputs": [
        {
          "internalType": "address",
          "name": "",
          "type": "address"
        }
      ],
      "payable": false,
      "stateMutability": "view",
      "type": "function"
    },
    {
      "constant": true,
      "inputs": [
        {
          "internalType": "uint256",
          "name": "",
          "type": "uint256"
        }
      ],
      "name": "zombies",
      "outputs": [
        {
          "internalType": "string",
          "name": "name",
          "type": "string"
        },
        {
          "internalType": "uint256",
          "name": "dna",
          "type": "uint256"
        }
      ],
      "payable": false,
      "stateMutability": "view",
      "type": "function"
    },
    {
      "constant": false,
      "inputs": [
        {
          "internalType": "uint256",
          "name": "_zombieId",
          "type": "uint256"
        },
        {
          "internalType": "uint256",
          "name": "_targetDna",
          "type": "uint256"
        },
        {
          "internalType": "string",
          "name": "_species",
          "type": "string"
        }
      ],
      "name": "feedAndMultiply",
      "outputs": [],
      "payable": false,
      "stateMutability": "nonpayable",
      "type": "function"
    },
    {
      "constant": false,
      "inputs": [
        {
          "internalType": "uint256",
          "name": "_zombieId",
          "type": "uint256"
        },
        {
          "internalType": "uint256",
          "name": "_kittyId",
          "type": "uint256"
        }
      ],
      "name": "feedOnKitty",
      "outputs": [],
      "payable": false,
      "stateMutability": "nonpayable",
      "type": "function"
    }
  ],
  "bytecode": "0x60806040526010600055600054600a0a6001557306012c8cf97bead5deae237070f9587f8e7a266d600560006101000a81548173ffffffffffffffffffffffffffffffffffffffff021916908373ffffffffffffffffffffffffffffffffffffffff160217905550600560009054906101000a900473ffffffffffffffffffffffffffffffffffffffff16600660006101000a81548173ffffffffffffffffffffffffffffffffffffffff021916908373ffffffffffffffffffffffffffffffffffffffff1602179055503480156100d657600080fd5b50610b74806100e66000396000f3fe608060405234801561001057600080fd5b50600436106100575760003560e01c806317a7f4cc1461005c5780632052465e14610094578063528b7b8f146101425780636b0bfc80146101b05780637bff0a011461027f575b600080fd5b6100926004803603604081101561007257600080fd5b81019080803590602001909291908035906020019092919050505061033a565b005b6100c0600480360360208110156100aa57600080fd5b81019080803590602001909291905050506104c5565b6040518080602001838152602001828103825284818151815260200191508051906020019080838360005b838110156101065780820151818401526020810190506100eb565b50505050905090810190601f1680156101335780820380516001836020036101000a031916815260200191505b50935050505060405180910390f35b61016e6004803603602081101561015857600080fd5b810190808035906020019092919050505061058e565b604051808273ffffffffffffffffffffffffffffffffffffffff1673ffffffffffffffffffffffffffffffffffffffff16815260200191505060405180910390f35b61027d600480360360608110156101c657600080fd5b810190808035906020019092919080359060200190929190803590602001906401000000008111156101f757600080fd5b82018360208201111561020957600080fd5b8035906020019184600183028401116401000000008311171561022b57600080fd5b91908080601f016020809104026020016040519081016040528093929190818152602001838380828437600081840152601f19601f8201169050808301925050505050505091929192905050506105c1565b005b6103386004803603602081101561029557600080fd5b81019080803590602001906401000000008111156102b257600080fd5b8201836020820111156102c457600080fd5b803590602001918460018302840111640100000000831117156102e657600080fd5b91908080601f016020809104026020016040519081016040528093929190818152602001838380828437600081840152601f19601f8201169050808301925050505050505091929192905050506107b1565b005b6000600660009054906101000a900473ffffffffffffffffffffffffffffffffffffffff1673ffffffffffffffffffffffffffffffffffffffff1663e98b7f4d836040518263ffffffff1660e01b8152600401808281526020019150506101406040518083038186803b1580156103b057600080fd5b505afa1580156103c4573d6000803e3d6000fd5b505050506040513d6101408110156103db57600080fd5b8101908080519060200190929190805190602001909291908051906020019092919080519060200190929190805190602001909291908051906020019092919080519060200190929190805190602001909291908051906020019092919080519060200190929190505050909192939495969798509091929394959697509091929394959650909192939495509091929394509091929350909192509091509050809150506104c083826040518060400160405280600581526020017f6b697474790000000000000000000000000000000000000000000000000000008152506105c1565b505050565b600281815481106104d257fe5b9060005260206000209060020201600091509050806000018054600181600116156101000203166002900480601f01602080910402602001604051908101604052809291908181526020018280546001816001161561010002031660029004801561057e5780601f106105535761010080835404028352916020019161057e565b820191906000526020600020905b81548152906001019060200180831161056157829003601f168201915b5050505050908060010154905082565b60036020528060005260406000206000915054906101000a900473ffffffffffffffffffffffffffffffffffffffff1681565b6003600084815260200190815260200160002060009054906101000a900473ffffffffffffffffffffffffffffffffffffffff1673ffffffffffffffffffffffffffffffffffffffff163373ffffffffffffffffffffffffffffffffffffffff161461062c57600080fd5b60006002848154811061063b57fe5b90600052602060002090600202019050600154838161065657fe5b06925060006002848360010154018161066b57fe5b0490506040516020018080602001828103825260058152602001807f6b6974747900000000000000000000000000000000000000000000000000000081525060200191505060405160208183030381529060405280519060200120836040516020018080602001828103825283818151815260200191508051906020019080838360005b8381101561070a5780820151818401526020810190506106ef565b50505050905090810190601f1680156107375780820380516001836020036101000a031916815260200191505b509250505060405160208183030381529060405280519060200120141561076b5760636064828161076457fe5b0682030190505b6107aa6040518060400160405280600681526020017f4e6f4e616d65000000000000000000000000000000000000000000000000000081525082610827565b5050505050565b6000600460003373ffffffffffffffffffffffffffffffffffffffff1673ffffffffffffffffffffffffffffffffffffffff16815260200190815260200160002054146107fd57600080fd5b6000610808826109f2565b90506064818161081457fe5b06810390506108238282610827565b5050565b6002604051806040016040528084815260200183815250908060018154018082558091505090600182039060005260206000209060020201600090919290919091506000820151816000019080519060200190610885929190610a9a565b506020820151816001015550505060006001600280549050039050336003600083815260200190815260200160002060006101000a81548173ffffffffffffffffffffffffffffffffffffffff021916908373ffffffffffffffffffffffffffffffffffffffff160217905550600460003373ffffffffffffffffffffffffffffffffffffffff1673ffffffffffffffffffffffffffffffffffffffff168152602001908152602001600020600081548092919060010191905055507f88f026aacbbecc90c18411df4b1185fd8d9be2470f1962f192bf84a27d0704b78184846040518084815260200180602001838152602001828103825284818151815260200191508051906020019080838360005b838110156109b1578082015181840152602081019050610996565b50505050905090810190601f1680156109de5780820380516001836020036101000a031916815260200191505b5094505050505060405180910390a1505050565b600080826040516020018080602001828103825283818151815260200191508051906020019080838360005b83811015610a39578082015181840152602081019050610a1e565b50505050905090810190601f168015610a665780820380516001836020036101000a031916815260200191505b50925050506040516020818303038152906040528051906020012060001c90506001548181610a9157fe5b06915050919050565b828054600181600116156101000203166002900490600052602060002090601f016020900481019282601f10610adb57805160ff1916838001178555610b09565b82800160010185558215610b09579182015b82811115610b08578251825591602001919060010190610aed565b5b509050610b169190610b1a565b5090565b610b3c91905b80821115610b38576000816000905550600101610b20565b5090565b9056fea265627a7a72315820ed3ea44331076b24c7ebf19509583ba270deaed324dd056aafd3e30114cf0e5164736f6c63430005100032",
  "source": "// SPDX-License-Identifier: MIT\r\npragma solidity ^0.5.16;\r\n\r\nimport \"./zombiefactory.sol\";\r\n\r\ncontract KittyInterface {\r\n    function getKitty(uint256 _id) external view returns (\r\n        bool isGestating,\r\n        bool isReady,\r\n        uint256 cooldownIndex,\r\n        uint256 nextActionAt,\r\n        uint256 siringWithId,\r\n        uint256 birthTime,\r\n        uint256 matronId,\r\n        uint256 sireId,\r\n        uint256 generation,\r\n        uint256 genes\r\n    );\r\n}\r\n\r\ncontract ZombieFeeding is ZombieFactory {\r\n\r\n    address ckAddress = 0x06012c8cf97BEaD5deAe237070F9587f8E7A266d;\r\n    KittyInterface kittyContract = KittyInterface(ckAddress);\r\n\r\n    // Здесь измени значение функции:\r\n    function feedAndMultiply(uint _zombieId, uint _targetDna, string memory _species) public {\r\n        require(msg.sender == zombieToOwner[_zombieId]);\r\n        Zombie storage myZombie = zombies[_zombieId];\r\n        _targetDna = _targetDna % dnaModulus;\r\n        uint newDna = (myZombie.dna + _targetDna) / 2;\r\n        // А здесь добавь оператор «если»:\r\n        if (keccak256(abi.encode(_species)) == keccak256(abi.encode(\"kitty\"))) {\r\n            newDna = newDna - newDna % 100 + 99;\r\n        }\r\n        _createZombie(\"NoName\", newDna);\r\n    }\r\n\r\n    function feedOnKitty(uint _zombieId, uint _kittyId) public {\r\n        uint kittyDna;\r\n        (,,,,,,,,, kittyDna) = kittyContract.getKitty(_kittyId);\r\n        // Здесь измени вызов функции:\r\n        feedAndMultiply(_zombieId, kittyDna, \"kitty\");\r\n    }\r\n\r\n}\r\n",
  "sourcePath": "E:\\Web\\solidity-test\\contracts\\zombiefeeding.sol",
  "compiler": {
    "name": "solc",
    "version": "0.5.16+commit.9c3226ce.Emscripten.clang"
  },
  "schemaVersion": "3.4.2",
  "updatedAt": "2021-07-28T16:26:04.142Z",
  "networkType": "ethereum",
  "devdoc": {
    "methods": {}
  },
  "userdoc": {
    "methods": {}
  }
}